:040000000C943A0022
:100004000C9400000C9400000C9400000C9400006C
:100014000C9400000C9400000C9400000C9400005C
:100024000C9400000C9400000C946A000C940000E2
:100034000C94A0000C9400000C9400000C9400009C
:100044000C9400000C9400000C9400000C9400002C
:1000540000005570706572206D616E75616C0100F1
:10006400000001000200540004000A0062000000C5
:10007400F894EE27ECBBF1E0FBBFEBBFE5BFF8E182
:10008400F1BDE1BD8DE0A2E0BB27ED938A95E9F7D0
:1000940080E094E0A0E6ED930197E9F7E6E6F0E06E
:1000A40085919591009761F0A591B5910590159072
:1000B400BF01F00105900D920197E1F7FB01F0CF2C
:1000C400EFE5EDBFE4E0EEBFC0E6D1E00C94E5005F
:1000D400EA93FA93EFB7EA931A930A931BB10CB11C
:1000E400E12FEC7189F4E52DF0E0E05AFE4F008336
:1000F4005394E8E0E51509F455247394E8E0E71512
:1001040019F47724689420F809911991E991EFBFC3
:10011400F991E99118951A937720F1F3E42DF0E021
:10012400E05AFE4F10814394E8E0E41509F44424B6
:10013400F8947A947894E12F19910895EA93FA93B4
:10014400EFB7EA93882061F08A94E92DF0E0E8594A
:10015400FE4FE081ECB99394E8E0E91509F49924A1
:10016400E991EFBFF991E99118951BB2E881ABEFE2
:100174000E947E01E121EBBBD99880EA9FE00197C0
:10018400F1F7BB24E8E0BE16A8F4E981E07811F0A9
:10019400D89A01C0D89880EA9FE00197F1F7D99ADC
:1001A40080EA9FE00197F1F7D998E981EE0FE9839E
:1001B400B394E8CF1BB2E881A4E00E947E01E12958
:1001C400EBBB229608952197E0E0E88320E459E010
:1001D40040E0E0937001E0937101E0937201E093D9
:1001E4007301E0937401E0937501EBBBEFEFEABB9D
:1001F400E0E0E8BBE7BBE5BBE4BBE2BBE1BBE3BFDC
:10020400E2BFECBFEFBDEEBDEDBDECBDE7BDE6BDAD
:10021400EBBDEABDE9BDE8BDE2BDE5BDE4BDE3BDBE
:10022400E5BFE4BFE9BFEBB9E8EDEAB9E6E8E0BD54
:10023400E0E0E0BDE9E1E9B9E0E8E8B9E0E0E0BF29
:10024400789469DF1E2F17FF09C0103F30F4E12FA7
:10025400E07F0E2FE12FEF703E2F48C0E12FF0E03A
:100264007897DF01E8E0F0E00E9499012E2FE12F5A
:10027400F0E07897DF01E8E0F0E00E949E01A1E061
:100284000E947E015E2F263078F5E02FF0E0E03802
:10029400A0E0FA07A9F4E22FF0E0E059FE4F0F01C5
:1002A400A081E52FE095EA23D001EC93E22FF0E062
:1002B400E059FE4FE081EA932A9357DF188314C074
:1002C400E039A0E0FA0781F4A22FB0E0A059BE4FB4
:1002D400EC91E52BEC93E22FF0E0E059FE4FE08146
:1002E400EA932A9342DF412F16DF1E2FAACFFFCFB6
:1002F400F195E195F0400895EE230E2EEA2F19F0C2
:10030400EE0F0A94E9F708950024112490E1AA0F4E
:10031400BB1F001C111C0E1A1F0A18F40E0E1F1E00
:1003240001C0A1609A9599F7FD01D001089512D0FA
:10033400EBDF0EF4DDDF0895E894B7FF04C0A09569
:10034400B09511966894F7FDD3DFDEDFFD010EF45E
:10035400CFDF0895E894F7FF02C0CADF6894B7FFBF
:1003640006C0A095B095119600F8039400FA08957C
:00000001FF
