:0E00000024C0FECFFDCFFCCFFBCFB0C062C04E
:10000E00F8CFF7CFF6CFF5CFF4CFF3CFF2CFF1CFC6
:10001E00F0CFEFCFEECFEDCFDB0AC74F1E5DDD0B7E
:10002E00DF5FD584F8FFFCFFFEFFFFFF000013002B
:10003E0000001000080002003A000000F894EE27BD
:10004E00ECBBE5BFF8E1A4B7A77FA4BFF1BDE1BD4E
:10005E008DE0A2E0ED938A95E9F780E8A0E6ED93B6
:10006E008A95E9F7E2E4F0E085919591009761F0C9
:10007E00A591B59105901590BF01F00105900D92D7
:10008E000197E1F7FB01F0CFE0E0E3BBE4BBE5BB9A
:10009E00EFEDEDBFC0E875C0C298C1989924E8E0B5
:1000AE009E1668F4E881E07811F0C39A01C0C398F7
:1000BE00C19AC198E881EE0FE8839394F0CFC29A6B
:1000CE00219608950A921A92FA926A937A938A93D3
:1000DE009A93AA93BA93EA93FA93EFB7EA93E2B399
:1000EE00EF78E2BBE82DE03171F4E0E09A99E1E0BF
:1000FE00EE0FEE0F2E2E989B03C09398929A02C08D
:10010E009298939A13C0E03229F4D301EAE0F0E01A
:10011E003FD206C0E03451F4D301EAE0F0E04BD216
:10012E002E2EE22DF0E0EA5DFF4F24902A92B4DFEE
:10013E00E2B3E829E2BB880CE0E4E81510F4E0E154
:10014E008E2EE991EFBFF991E991B991A99199910B
:10015E00899179916991F990199009901895EA937E
:10016E00999B03C0E2E0EEBD9998819908C0989BD7
:10017E0002C0989801C0989AE3E0EEBD999AE99171
:10018E001895E0E0EBBBEABBE8BBEEEFE7BBE0E0C7
:10019E00E2BBECE7E1BBE0E0E0BFE2E0E3BFE0E0C2
:1001AE00E2BFE6BFECBFEFBDE2E0EEBDE0E0EDBDCD
:1001BE00ECBDE5BDE4BDEBBDEABDE9BDE8BDEBBF01
:1001CE00E5BFE2E8E9BFE0E0EDB9E0E8E8B9E0EF6D
:1001DE00EA93E9E8EA933ED13E2EE9E8C9D0E2E996
:1001EE00C7D07894809B04C0E0E0989BE1E003C008
:1001FE00E0E09899E1E0A9E0C0D1E757EA9359D041
:10020E002F01F894BDD0E415F50579F057FC02C026
:10021E009A9806C09A9AF201E095F09531962F01C0
:10022E00F2019DD14E2E552432017894DBCFFFCFB3
:10023E001A93F894BFD0E03011F4E0E018C0E981D1
:10024E00E03081F0E5E59FD0789410E0F894A98134
:10025E00EC9199D07894E981EF5FE9831F5F1830B4
:10026E00A8F304C0F894ECEC8ED07894E1E01881F9
:10027E0022960895A5D1EA8188D011F4E0E016C047
:10028E00F894EEEB80D0789410E000E8F8940F9399
:10029E000F5FD1D0AF91EC9378941F5F1930B0F30C
:1002AE00E0E8EA93E9E0EA9344D162D18ED1239655
:1002BE00089584D16ED011F463D01CC0EC8165D04A
:1002CE0011F45ED017C0F894E4E45DD07894E8EEB3
:1002DE00F3E0FA93EA9362D05CD011F451D00AC0E5
:1002EE0069D0209180003327F0918100E0E02E2B21
:1002FE003F2BF90168D125960895EB8146D011F474
:10030E00E0E034C0E881E295E07FEE0FEF61E88334
:10031E00F894EEE438D0E98136D0EA8134D0E88121
:10032E0032D0EB81EA93A6DFE03011F4E0E01EC09C
:10033E00A0918300EA81EA1751F4A0918200E9812D
:10034E00EA1729F4A0918400E881EA1711F0E0E0A1
:10035E000DC0EB811AD011F4E0E008C0E8E413D030
:10036E00EFE0F0E0FA93EA9319D024D024960895A2
:10037E00EA93E2EEEA93ECE3EA93E0E0EA93BDCF90
:10038E00EFEFFFE00895EA935BC0EA9351DFE030B0
:10039E000895EC81EA936EDFE0300895E991F991CA
:1003AE00309639F080ED97E00197F1F7A8953197E7
:1003BE00C9F70895EE27C098B89A80EC93E001979C
:1003CE00F1F7B89885E28A95F1F7B09B08958BEC1A
:1003DE008A95F1F7B09BE3958CE093E00197F1F7E6
:1003EE000895B89A85E08A95F1F7B8988DE18A95C7
:1003FE00F1F78894B0990894E79585ED8A95F1F711
:10040E000895E894B89A85E08A95F1F770FDB8984A
:10041E0083E28A95F1F7B09903C070FF03C0089587
:10042E0070FF089588EC8A95F1F7B8988DE08A955B
:10043E00F1F76894089568E0D4DF6A95E9F70895B6
:10044E0068E07991EE27DDDF26F477956A95D9F786
:10045E00E39508954F935F9311244427A881BB27FA
:10046E00012C1124A7DFEE23F9F0E981EA93E8DFEE
:10047E0051E0501598F4B5DFE7FD08C0B2DFE7FD97
:10048E0006C03FD0892319F4152E01C0AADF39D03A
:10049E00892370E009F071E0B4DF1EC0A2DFE7FF30
:1004AE000BC09FDFE7FF05C0E42F5F914F912296AF
:1004BE000895689436D0EFCF94DFE7FF01C003C0F4
:1004CE00501531F0152EE8942CD077279ADF04C002
:1004DE00689427D071E095DF5395513454F281DF43
:1004EE00EE1FEE1FE1701896EC93189743951120AE
:1004FE00D9F259E0EC911996EC9318975A95D1F7D9
:10050E00AFCFE52FEA956E2FE695E695E695EA0FC5
:10051E00FF27808191E0677019F0990F6A95FCCFE3
:10052E000895EFDF1EF09095892301C0892B8083FB
:10053E000895EE278881882381F068E1A981BB2781
:10054E0098E0FD917F2F7E27779508F4E627E795B3
:10055E00F6959A95B9F78A9599F722960895F69594
:10056E00E795F695E795F695E795F695E79508954F
:10057E00EE23E1E009F0EE2708950A2EAA1BB9E05A
:10058E0003C008F4A00DA695E795BA95D1F7089586
:10059E000024112490E1AA0FBB1F001C111C0E1A7F
:1005AE001F0A18F40E0E1F1E01C0A1609A9599F72E
:1005BE00FD01D0010895ECDFFD0108953A932A93D1
:1005CE001A930A9308953B812A811981088108950F
:00000001FF
