:020000000C945E
:1000020010020C9400000C9400000C9400000C945C
:1000120000000C9400000C94D9020C9409030C9477
:1000220000000C9400000C9400000C9400000C944E
:1000320000000C9400000C9400000C9400000C943E
:1000420000000C9400000C9400000C9400000C942E
:1000520000000000320062008E00B500D500ED0005
:10006200FB00FF00FB00ED00D500B5008E00620032
:1000720032000000CEFF9EFF72FF4BFF2BFF13FFEB
:1000820005FF01FF05FF13FF2BFF4BFF72FF9EFFD2
:10009200CEFF0000320062008E00B500D500ED00F8
:1000A200FB0000030A17283C546D86A0B8CEE1F08D
:1000B200FAFFFFFAF0E1CEB8A0866D543C28170A89
:1000C200030000000000000000000080C0E0F0F823
:1000D200FCFEFF000080C0E0F0F8FCFEFFFFFFFF27
:1000E200FFFFFFFFFF00000000000000004F0000C4
:1000F2000007000700147F147F14242A7F2A12238A
:100102001308646236495522400005030000001CB2
:100112002241000041221C0014083E081408083E37
:100122000808005030000008080808080060600055
:100132000020100804023E5149453E00427F400023
:1001420042615149462141454B311814127F102713
:10015200454545393C4A494930017109050336494B
:10016200494936064949291E0036360000005636EE
:100172000000081422410014141414140041221423
:10018200080201510906324971413E7E1111117E68
:100192007F494949363E414141227F4141221C7FEC
:1001A200494949417F090909013E4149493A7F08C4
:1001B20008087F00417F41002040413F017F081431
:1001C20022417F404040407F020C027F7F040810A2
:1001D2007F3E4141413E7F090909063E4151215E70
:1001E2007F09192946464949493101017F01013FE9
:1001F2004040403F1F2040201F3F4070403F63145B
:1002020008146307087008076151494543007F419C
:10021200410002040810200041417F000402010253
:1002220004404040404000010204002054545478ED
:100232007F484444383844444420384444487F3852
:1002420054545418087E0901020C5252523E7F083F
:1002520004047800447D40002040443D007F102883
:10026200440000417F40007C041804787C080404A8
:100272007838444444387C14141408081414187C44
:100282007C080404084854545420043F4440203C51
:100292004040207C1C2040201C3C4030403C4428F4
:1002A2001028440C5050503C4464544C44000836CE
:1002B200410000007F0000004136080002010202F6
:1002C2000100000000007E1111117E7F494949336F
:1002D2007F494949367F01010103E0514F41FF7FC8
:1002E2004949494177087F087741494949367F1092
:1002F20008047F7C2112097C7F0814224120413F9F
:10030200017F7F020C027F7F0808087F3E41414146
:100312003E7F0101017F7F090909063E41414122D9
:1003220001017F010147281008071C227F221C635C
:10033200140814637F404040FF070808087F7F408D
:100342007F407F7F407F40FF017F4848307F4830B9
:10035200007F007F484830224149493E7F083E41A4
:100362003E462919097F20545454783C4A4A49315F
:100372007C545428007C0404040CE0544C44FC38A3
:10038200545454186C107C106C44445454287C20EF
:1003920010087C7C4122117C7C1028440020443CC3
:1003A200047C7C0810087C7C1010107C3844444487
:1003B200387C0404047C7C1414140838444444201B
:1003C20004047C04040C5050503C3048FC48304437
:1003D200281028447C404040FC0C1010107C7C40CB
:1003E2007C407C7C407C40FC047C5050207C505003
:1003F200207C7C5050200028445454387C103844CF
:1004020038085434147C000001002D4E414E000087
:100412000100020008040100A7020A040000F89487
:10042200EE27ECBBF1E0FBBFEBBFE5BFF8E1F1BDAE
:10043200E1BD8DE0A2E0BB27ED938A95E9F780E06C
:1004420094E0A0E6ED930197E9F7E2E1F4E085910B
:100452009591009761F0A591B59105901590BF0116
:10046200F00105900D920197E1F7FB01F0CFEFE566
:10047200EDBFE4E0EEBFC0E6D1E00C945606E8B36F
:10048200A881EA2BE8BBC098C19800000000E9816E
:10049200E2BBC29A000000000DC0E8B3A881EA2BBB
:1004A200E8BBC09AC19800000000E981E2BBC29A91
:1004B20000000000C2988BE08A95F1F7E8B3EF7C68
:1004C200E8BB22960895E981E854EA93E981EA9328
:1004D200D6DFEA81E05CEA93E981EA93D0DF2396F2
:1004E2000895C39AE5E0F0E0FA93EA930E941E09A8
:1004F200E0E0EA93EA93E0E3EA93E5DFE0ECEA93F3
:10050200E0E3EA93BCDFEFE3EA93E0E3EA93B7DFE9
:1005120008951A930A9310E0103488F400E008302A
:1005220060F41A930A93E0E3EA93CDDFE0E0EA9302
:10053200E0E3EA93B2DF0F5FF2CF1F5FEDCF0991E5
:10054200199108958824E0E28E1680F40E944E07E5
:10055200EA0FFB1FFF93EF930E944E070E9455077D
:10056200AF91BF91ED93FC938394EDCF08958824CE
:10057200E0E28E1680F40E946507EA0FFB1FFF93EC
:10058200EF930E9465070E945507AF91BF91ED93CB
:10059200FC938394EDCF0895E881E064E7B90E946B
:1005A2006C07349BFECF349AE4B1F5B121960895DD
:1005B2000E947107EF7E0E9489070E948F07EA0F4F
:1005C200FB1FFF93EF93E0E0EA93E6DFAF91BF9169
:1005D2000E9494070E948F070E949B070E94A00717
:1005E20050F40E94A8070E948F070E949B07E09385
:1005F200A502F093A602E9B7E061E9BFA0916A0102
:10060200A03229F4E9B7EF7EE9BFE89420F82FC0C1
:100612000E947107E77F0E9489070E94AD07EA0FD7
:10062200FB1FFF93EF93E1E0EA93B6DFAF91BF9137
:100632000E9494070E94AD070E949B070E94A00798
:1006420050F40E94A8070E94AD070E949B07E09306
:10065200A502F093A602E9B7E860E9BFA0916A019A
:10066200A03229F4E9B7E77FE9BFE89420F8E991DD
:10067200EFBFF991E991B991A991999189917991F4
:100682006991F990199009901895E2E8E6B90E94EB
:100692006C07E0E0F0E0FDBDECBDE9B7E0610AC047
:1006A200E2E8E6B90E946C07E0E0F0E0FDBDECBDD7
:1006B200E9B7E860E9BFE0E0E0936A01689420F8F6
:1006C20008950E94B207E0E2E915C0F00E94BA075D
:1006D200EA0FFB1F0F010E94BA070E949B070E94AC
:1006E200020BD001ED93FC930E94BA070E949B0774
:1006F2000E94BE070E94C3079394E5CF0E94CA07D7
:10070200E0E2E91510F40C94CA030E94D5070E9496
:10071200D9070E948F070E949B070E94E3070E944D
:10072200EA07EA0FFB1FBF010E94D5070E94EA07F2
:100732000E949B07DF010E94D5070E94EF070E94DB
:10074200EA070E94F9070E94EA070E949B070E949B
:10075200FD070E94EA070E949B07E038A0E0FA0723
:1007620034F00E94D5070E94EA070E9403080E9403
:10077200D5070E94EA070E949B07E138AFEFFA070C
:1007820034F40E94D5070E94EA070E940A08939453
:10079200B7CF08950E94B207E0E2E915D8F00E94AF
:1007A200D5070E94AD070E94F9070E94AD070E947B
:1007B2009B070E94020BD001ED93FC930E94D50788
:1007C2000E94AD070E949B070E94BE070E94C307BA
:1007D2009394E2CF0E94CA07E0E2E91510F40C9468
:1007E20036040E94D5070E94D9070E94AD070E94D5
:1007F2009B070E94E3070E94EA07EA0FFB1FBF0163
:100802000E94D5070E94EA070E949B07DF010E940F
:10081200D5070E94EF070E94EA070E94F9070E948B
:10082200EA070E949B070E94FD070E94EA070E94B6
:100832009B07E038A0E0FA0734F00E94D5070E9437
:10084200EA070E9403080E94D5070E94EA070E9455
:100852009B07E138AFEFFA0734F40E94D5070E94F4
:10086200EA070E940A089394B7CF0895E1E09E2E0A
:10087200EFE0E91510F40C94C704E0E0E0936B019B
:10088200E0936C01E0936D01E0936E018824EFE147
:10089200E81510F40C948C04A82DBB27E92DF0E088
:1008A2000E94190B0E941108EF71F0700E9411084A
:1008B200A4E5B0E0EE0FFF1FEA0FFB1F0E9416082F
:1008C200D0010E94190B5F01E0916601F09167016E
:1008D200EE0FFF1FEE59FF4F0E941608D0010E9433
:1008E200190B6F01AB2CBB24A7FCB094CD2CDD24DB
:1008F200C7FCD094F601A0916B01B0916C01EA0F94
:10090200FB1F0E942008EA19FB09E0936D01F09396
:100912006E018394BCCFE0916B01F0916C010E9457
:10092200FB0A0E9420080E94FB0AE0936D01F093EB
:100932006E01E0916B01F0916C01A0916B01B0919D
:100942006C010E94190B6F01E0916D01F0916E0133
:10095200A0916D01B0916E010E94190B5F01CA0C4A
:10096200DB1CE92DAFE2B2E0F0E0EE0FFF1FEA0F71
:10097200FB1FFF93EF93DA92CA920E949006AF9107
:10098200BF91F0E0ED93FC93939472CF08950E948F
:100992002908E09357020E943408E09358020E940B
:1009A2003F08E0916801E09359020E944808E091F3
:1009B2006801E0935A020E94510810F40E946008F4
:1009C200E0916801E0935B020E94690810F40E94C2
:1009D2007808E0916801E0935C020E94810810F4BB
:1009E2000E9490080E94990810F40E94A408E091C5
:1009F2006801E0935D020E94AD0810F40E94BC08F9
:100A02000E94C50810F40E94D008E0916801E093AA
:100A12005E020895E0913102F0913202E0936801A2
:100A2200F0936901E0916801E0934F020E94290866
:100A3200E09350020E943408E09351020E943F0862
:100A4200A0913902B0913A02E0916801F0916901F6
:100A5200EA17FB0710F40E944808E0916801E0934E
:100A620052020E94510810F40E946008E09168014D
:100A7200E09353020E94690810F40E947808E09102
:100A82006801E09354020E94810810F40E949008C9
:100A92000E94990810F40E94A408E0916801E09372
:100AA20055020E94AD0810F40E94BC080E94C508BD
:100AB20010F40E94D008E0916801E0935602089574
:100AC200E1E09E2EE0E1E91510F40C9401060E948B
:100AD200D507E15BFD4F0E94D9080E940C0B0E94D2
:100AE200A909ADECBCEC8CEC9DE30E94DC080E94F1
:100AF200510B0E943707E0936F02F09370026093EC
:100B0200710270937202A0E0B0E080E292E40E946F
:100B1200DC08A0E0B0E080E091E40E94E309DF019C
:100B2200CB01E0E0F0E060E871E40E94560B0E9425
:100B3200DC090E9472096F010024C014D00414F46D
:100B4200CC24DD24E0E1F0E0EC15FD050CF46F01AE
:100B52000E94D507E15BFD4FC0820E94D5070F01BD
:100B6200E15BFD4FA081F001E15AFD4FE081EA1700
:100B720058F40E94D5070F01E15AFD4FDF01F00141
:100B8200E15BFD4FE08123C00E94D507EB56FD4F8C
:100B9200A081A130A9F40E94D507E15AFD4FA0819E
:100BA200A13040F00E94D507E15AFD4FDF01EC91E0
:100BB200E150EC930E94D507EB56FD4FA0E0A083D5
:100BC2000E94D507EB56FD4FDF01EC91EF5FEC93EE
:100BD2000E94D5070F01EB58FD4F0E94E708EC5326
:100BE200FF4FE491EC930E94D5070F01EB57FD4FA5
:100BF2000E94E708EA52FF4FE491EC93939462CF8C
:100C0200E0E0EA93E6E00E94EC08E8E08E1668F481
:100C12009924E8E09E1638F40E94F308E0E2EA9391
:100C22003CDC9394F6CF8394F0CFE0E0EA93E6E0E5
:100C32000E94FA08E0E18E1668F49924E8E09E1614
:100C420038F40E94F308E0E1EA9327DC9394F6CFAC
:100C52008394F0CFE0E0EA93E7E00E94EC08E8E05A
:100C62008E1668F49924E8E09E1638F40E94020970
:100C7200E0E2EA9312DC9394F6CF8394F0CFE0E0C3
:100C8200EA93E7E00E94FA08E0E18E1668F49924FC
:100C9200E8E09E1638F40E940209E0E1EA93FDDBE7
:100CA2009394F6CF8394F0CF0895E0E0EABBEFEFA0
:100CB200E7BBE3E0E4BBEFEFE1BBE0ECEBBBE0E082
:100CC200E8BBEFEFE5BBE0E0E2BBEFBDE1E0EEBD8C
:100CD200E0E0F0E0FDBDECBDE5EBF0E0FBBDEABD20
:100CE200E0E4FCE9F9BDE8BDE0E0E9BFFADB11DCD4
:100CF200E2E8E6B9E0E4E7B97894369AC6DC20FC8B
:100D0200FECF20DCCDDC20FCFECF31DC43DDAEDDCE
:100D120081DED7DCABDD3BDED3DEF0CFFFCFA991A6
:100D2200B991EE27002460E8E894162E16940794F1
:100D32001E2A1EF0A015B10518F0A019B109E62B64
:100D4200B7FBAA0FBB1F669580F7089524971A93E5
:100D52000A930E9409090E94630B2CF0EFEFFFEF48
:100D62006FE77FEF7FC00E940E090E94510BEDB723
:100D7200FEB73197FA93EA931F930F930E942A09C1
:100D82000F911F910E9413090E940909E3EFF4E0F9
:100D920065E37FE30E94C60A50F40E940E090E9496
:100DA20009090E94E3090E941309015010400E94A0
:100DB20018090E94DC097F936F93FF93EF930E94BF
:100DC20018090E94E309AF91BF918F919F910E94F0
:100DD200810A0E9413090E940E090E9409090E94B9
:100DE200330AEA83FB836C837D83A6E2B2E485E661
:100DF2009FE30E94330ADF01CB01EEE4F1E164E5F7
:100E020070E40E94560B0E94DC090E9409090E94AC
:100E1200330A7F936F93FF93EF93EA81FB816C8197
:100E22007D81ADE4B1E184ED9FE30E94DC09AF91E5
:100E3200BF918F919F910E94810A7F936F93FF933D
:100E4200EF93F8010E940C0B0E94A909A8E1B2E7F6
:100E520081E39FE30E94330AAF91BF918F919F91EB
:100E62000E94E309198108812A9608950E944C0B79
:100E72000E94630B2CF0EFEFFFEF6FE77FEF0BC0E9
:100E82000E94470B0E94510B61DFA9EDBBE58EED7D
:100E92009EE30E94330A24960895E82DAFEAB1E05A
:100EA200F0E0EE0FFF1F0895AE0FBF1F6D917C9112
:100EB200E091A502F091A602A0E0B4E00E941E0B10
:100EC200DB010E94110B0895E82DAFEEB1E0F0E0D6
:100ED200EE0FFF1F08958BE18A95F1F7369A089578
:100EE2000A921A92FA926A937A938A939A93AA939B
:100EF200BA93EA93FA93EFB7EA93E0E0F0E0FDBD2C
:100F0200ECBDE0916A01EF5FE0936A01E9B70895F1
:100F1200E9BFE0916A01F0E031970895AFEAB1E0EC
:100F2200EE0FFF1F0895ED93FC93E0916A01F0E04C
:100F320031970895AE0FBF1F0E943F0B0895DF0146
:100F4200E091A502F091A602EA17FB070895E0914D
:100F52006A01F0E031970895AFEEB1E0EE0FFF1FA6
:100F62000895E0E0E0937302E0937402E1E09E2EC4
:100F72000895E92DF0E03197D1CFA0917302B0919D
:100F820074020895EA0FFB1FE0937302F093740258
:100F92000895F3DFE5E00E94F20AE0937302F09312
:100FA2007402E1E09E2E0895E92DF0E03197089554
:100FB200BF01AFE6B1E0EE0FFF1FEA0FFB1F0F010B
:100FC200FB010895DADFEA1BFB0BD001ED93FC93E2
:100FD200EBCFAFE6B1E0EE0FFF1F0895EC55FF4FE8
:100FE200E491F0E00E94190BDB01ED93FC93DCCF5E
:100FF200EA0FFB1F0F01D8CF0E94070BD001ED9320
:10100200FC93D2CFAE0FBF1FEFE7F0E0ED93FC935E
:101012000895AE0FBF1FE1E8FFEFED93FC93089533
:10102200E0936601F093670108950E94430B0F015C
:10103200E82DAFE6B1E0F0E0EE0FFF1F7BCFE093CB
:101042006B01F0936C01E0916D01F0916E010895D6
:10105200E0913302F0913402E0936801F093690168
:10106200E09168010895E0913502F0913602E09333
:101072006801F0936901E09168010895E0913702F7
:10108200F0913802E0936801F09369010895E091CC
:101092003902F0913A02E0936801F09369010895F0
:1010A200E0913B02F0913C02E0936801F093690108
:1010B200A0913D02B0913E02EA17FB070895E0912C
:1010C2003D02F0913E02E0936801F09369010895B8
:1010D200E0913F02F0914002E0936801F0936901D0
:1010E200A0914102B0914202EA17FB070895E091F4
:1010F2004102F0914202E0936801F0936901089580
:10110200E0914302F0914402E0936801F093690197
:10111200A0914502B0914602EA17FB070895E091BB
:101122004502F0914602E0936801F0936901089547
:10113200A0914702B0914802E0916801F0916901E3
:10114200EA17FB070895E0914702F0914802E09305
:101152006801F09369010895E0914902F0914A0211
:10116200E0936801F0936901A0914B02B0914C02A7
:10117200EA17FB070895E0914B02F0914C02E093CD
:101182006801F09369010895A0914D02B0914E0259
:10119200E0916801F0916901EA17FB070895E09177
:1011A2004D02F0914E02E0936801F09369010895B7
:1011B200E081F0E008950E94330AE0936F02F09319
:1011C200700260937102709372020895DF01F00160
:1011D200E15AFD4FEDCFEA93E0E2EA930E94640206
:1011E20088240895E82DF0E0EB58FD4FE081EA9362
:1011F2000895EA93E0E1EA930E946402E8E08E2E09
:101202000895E82DF0E0EB57FD4FE081EA93089551
:10121200AE81BF81888599850895EE81FF816885B9
:1012220079850895EE83FF83688779870895F5DFCE
:10123200A0E0B0E080E89FE30895E991F99130964B
:1012420039F080ED97E00197F1F7A8953197C9F74A
:101252000895A991B991E991F9916991799177FBF1
:10126200660F771F88277E57880B7D938C937EE7C6
:10127200769567950EF0089530976040704009F0BA
:1012820070580895552342F4503811F4E0FF04C019
:101292003196691F791F6BF050E8572711F45F935D
:1012A200CFC05F3F31F0660F000C57956795752FE1
:1012B20008955F9300200AF0CFC0C8C050E8192EED
:1012C2001522880F991F9527550F879550E8072EED
:1012D2000522660F771F7527550F67950895689445
:1012E20001C0E8945F93F2DF703818F07F3F08F492
:1012F200A7C056E1571BAAF4519558300EF4593045
:1013020030F0EFEFFFEF6FEF7FE777F91AC0772743
:101312005523B9F0EE0FFF1F661F771F5A95D1F7BD
:1013220010C07727583028F0EF2FF62F672F58502C
:10133200F9CF552331F076956795F795E7955A954C
:10134200D1F700200AF445D15F910895689401C055
:10135200E894309760407040B1F0002426F0772383
:1013620012F4009436D1172E7EE1112032F07A95D4
:10137200EE0FFF1F661F111CF9CFEF2FF62F612D05
:101382005F938ADF5F9108954F93AF01FD01DA0108
:10139200AB01BC01CA01402D012C142E4F910895BE
:1013A200EA0FFB1F681F0895E095F0956095EF5FC7
:1013B200FF4F6F4F08955F9381DF903871F150E8CE
:1013C200152604C05F937ADF903839F1703821F125
:1013D200572F591B2BF112F4D7DFFACF583118F0DF
:1013E200AA27BB278827583028F0AB2FB82F882789
:1013F2005850F9CF552329F08695B795A7955A9558
:10140200D9F7502D512572F0CBDF38F46795F79557
:10141200E795739513F420C0B7DF3EDF5F9108951F
:10142200D8F7FBCFEA1BFB0B680B51F010F40094CA
:10143200BBDF662392F3EE0FFF1F661F7A95CBF791
:10144200EE27FF27662777275F910895EFEFFFEFDB
:101452006FE77FEF5F910895EFEFFFEF6FE77FE7B1
:101462005F9108955F932ADF703851F3903841F30A
:1014720001240894791F23F41CF300203AF3ECCFE3
:101482000F921F932F933F934F9311272227992750
:10149200689FA0018F9F302D410D591F6B9F300D0A
:1014A200411D591F8E9F27D0BF9F25D06A9F23D0F1
:1014B200BE9F1DD0AF9F1BD0AE9F110D291F391F9C
:1014C200491F591FE32FF42F652F522F4F913F9140
:1014D2002F911F910F9066232AF0550FEE1FFF1FC9
:1014E200661F02C073954BF2CDDE5F910895100D19
:1014F200211D391F02C0200D311D491F591F08959A
:101502005F93DCDE703821F411200AF49FCFA4CF60
:10151200903809F495CF01240894970B1BF4D4F367
:101522000020F3CF792F1F932F933F934F931124D2
:101532001127222733274427552790E2AE17BF07EA
:101542008607410730F0AE1BBF0B860B410B089498
:1015520001C08894551F221F331F111CAA1FBB1FD5
:10156200881F441F9A9551F7F901612D4F913F91C0
:101572002F911F91662332F0550FEE1FFF1F661F3A
:101582007A9543F27FDE5F91089599239AF077234B
:1015920042F0971748F029F4AE17BF07860720F0EC
:1015A20031F0989488940895989408940895189422
:1015B200889408957723C2F7971798F3A9F7EA1743
:1015C200FB07680788F399F3ECCFF195E195F040BA
:1015D2000895F09560957095E195FF4F6F4F7F4F9D
:1015E2000895EE230E2EFD0121F0F595E7950A945C
:1015F200E1F70895F595E795F595E795F595E79562
:101602000895F695E795F695E7950895EF2FFF274C
:10161200E7FDFFEF08956F2F660F660B762F089593
:10162200FA9FF02DEB9FF00DEA9FE02DF10D08954A
:1016320017D0F6DF0EF4C9DF08950024112490E1DB
:10164200AA0FBB1F001C111C0E1A1F0A18F40E0E43
:101652001F1E01C0A1609A9599F7FD01D00108955E
:10166200E894F7FF02C0B1DF6894B7FF06C0A09507
:10167200B095119600F8039400FA0895ED91FC914B
:10168200119708950590F491E02D0895E881F9816C
:101692006A817B810895A881B9818A819B8108959D
:1016A2007A936A93FA93EA930895182E862F612DFE
:1016B200192E972F712D1B2EBF2FF12D1A2EAE2F03
:1016C200E12D089500240A160B060806090608955E
:00000001FF
