:1000000047C1FECFFDCFFCCFFBCFFACFF6C1F8CF73
:1000100000000000010002000300040005000600CB
:10002000070008000800090009000A000A000B0088
:100030000B000C000C000D000D000E000E000F0058
:100040000F00100010001100110012001200130028
:1000500013001400140015001500160016001700F8
:10006000170018001800190019001A001A001B00C8
:100070001B001C001C001D001D001E001F00200096
:10008000210022002300240025002600270028004C
:1000900029002A002B002C002D002E002F003000FC
:1000A00031003200330034003500360037003800AC
:1000B00039003A003B003C003D003E003F0040005C
:1000C000410042004300440045004600470048000C
:1000D00049004B004D004F005100530055005700A0
:1000E00059005B005D005F00610063006500670010
:1000F00069006B006D006F00710073007500770080
:100100007A007D007F008200850088008B008E00D1
:1001100091009400950096009B009D009F00A40014
:10012000A600AA00AE00B100B400B800BC00C10037
:10013000C800CC00D000D400D800DC00E100E6000C
:10014000EB00F000F500FA00FF00040109010E01C8
:1001500014011A01200126012C01320138013E014F
:1001600044014B0153015B0163016C0174017C018B
:1001700086018E0196019E01A601AE01B601BE0167
:10018000C601CE01D601E001EA01F401FE01080238
:1001900012021C0229023602430250025D026A0268
:1001A0007702840291029E02AD02BA02C702D40213
:1001B000E402EE02FF020F03200331034203530364
:1001C0006403750386039703A603B903CA03DB031D
:1001D000E80309042A044C0465047E049704B0046F
:1001E000C904E204FB0414053205460564057805DC
:1001F000A005AA05DC05FD051B064006610685066F
:10020000A406C506E606080729074A076C07D007B3
:100210000400000011000000000000000200202087
:10022000507265736574202300206D7300456C6502
:100230006374726F2D4861726D6F6E697800202053
:100240002331204563686F206279002052696E6F08
:100250006E204E696E7175656F6E000080C0010082
:10026000BD0010020B0080001E0204008B0029025A
:1002700011008F002D020D00A0003E021000AD0005
:100280004B020C00020012020200C3005C020000DC
:10029000F894EE27ECBBE5BFF8E1A4B7A77FA4BFB5
:1002A000F1BDE1BD8DE0A2E0ED938A95E9F780E82C
:1002B000A0E6ED938A95E9F7EEE5F2E08591959158
:1002C000009761F0A591B59105901590BF01F001DF
:1002D00005900D920197E1F7FB01F0CFE0E0E3BB61
:1002E000E4BBE5BBEFEDEDBFC0E8D4C0E1E14E2ECD
:1002F000969824D2C39822D27724E8E07E1648F458
:1003000047FE02C0959A01C095981CD2440C739484
:10031000F4CF7724E8E07E1660F4E881E07811F00D
:10032000959A01C095980ED2E881EE0FE8837394F8
:10033000F1CF04D2C39A00C20AD25BD26E2E07D28A
:100340000BD29E2EA881B981E4E6F0E005D28E2E74
:10035000A881B98107D200D2BE2EBB2011F0EB2DAF
:1003600004D2E0E0E81511F4EB1511F0E82DFDD111
:10037000E0E0E91521F4E81511F4EB1511F0E92D91
:10038000F4D1E62DF2D19CC15BD1E0E8F1D1E0E0FF
:10039000E31510F4ECE301C0E0E2EA9360D1E32D51
:1003A000EF5FF0E0FA93EA93C7DFE4E03E1610F463
:1003B000EEE301C0E0E2EA9352D1E3E0DBD1E0E01A
:1003C000E21510F4ECE301C0E0E2EA9348D1E22D3B
:1003D000A0E1B0E0F0E0EE0FFF1FEA0FFB1F0CD230
:1003E000CDD1AADFEFEF2E1610F4EEE301C0E0E26C
:1003F000EA9335D1EBE8BCD10895EA93EFB7EA93DD
:10040000829B02C0839901C001C0AA24829902C0C4
:10041000839901C002C0E1E0AE2E829902C0839BA5
:1004200001C002C0E2E0AE2E829B02C0839B01C0ED
:1004300002C0E3E0AE2EED2DE03049F4E1E0EA1534
:1004400009F4CC24E3E0EA1509F49BD11EC0E130A5
:1004500041F4E2E0EA1509F4CC24AA2009F491D190
:1004600014C0E23049F4E3E0EA1509F4CC24E1E0F9
:10047000EA1509F486D109C0E33039F4AA2009F459
:10048000CC24E2E0EA1509F47CD1DA2CE991EFBF43
:10049000E9911895E0E8E6BDE0E0E6BDEBBBEABB1C
:1004A000E8E0E8BBEFEFE7BBE0E0E2BBE0E6E1BBA2
:1004B000E0E0E0BFE2E0E3BFE0E0E2BFE6BFECBFC8
:1004C000EFBDEEBDEDBDECBDE5BDE4BDEBBDEABDF0
:1004D000E9BDE8BDEBBFE5BFEABFE2E0E9BFE0E0B0
:1004E000EDB9E0E8E8B9E0E1EA93FBD0A9D0EFE8A4
:1004F0003FD14AD1E0EA3CD147D1EDEA39D132D1FE
:100500003DD158D141DF78947724E5E07E1630F470
:10051000E72D7394E254AFEAA083F7CF2090BE009A
:1005200038D1E1E0EC1529F1CC2079F4E091BD005F
:10053000E03039F4E0E0E21508F42A94E4E0E093D6
:10054000BD00E091BD00E1500EC0A091BD00A830FB
:1005500039F4EFEF2E1608F42394E4E0E093BD00A5
:10056000E091BD00EF5FE093BD0013D1E1E0CE2E3E
:100570000BDF80990BC050FC08C0E1E00CD1E0E03B
:10058000E31508F43A940CD1FFDE02C0EEEF5E22D0
:1005900081990BC051FC08C0E2E0FDD0E4E03E16BA
:1005A00008F43394FDD0F0DE02C0EDEF5E22B9CF47
:1005B000FFCFFFE0FA95F1F70895A7B3AF70A7BB9F
:1005C000C19AC098F6DFC29AF4DFA6B3C298F1DFF1
:1005D000C29AEFDFC298A7FDF5CF0895A07FAB2B9D
:1005E000A8BBC29AE6DFC298E4DF0895C198A7B31A
:1005F000A76FA7BBB8B3BF70A881F0DFA881A29591
:10060000EDDFC19A99C0C29AD4DFE6B3C298D1DFB8
:10061000E07F0895CEDFF7DFAE2FF5DFC198E295DA
:10062000EA2B0895CADFE881ED53E081A981EA0F42
:10063000BBD0E981E093C700E881E093C80040C0E7
:10064000BCDFE2E0B1D0B9DFECE0AED0B6DFE1E094
:10065000ABD0E0E0E093C800E093C7000895EF93CB
:10066000FF93A8816894AA3039F0E894E091C9001A
:10067000A091C700AE1760F0E091C800EF5FE09373
:10068000C800E0E0EA93E091C800EA93CBDF56F0BF
:10069000E091C700EF5FE093C7008FDFC09AA881A9
:1006A000AA93A4DFFF91EF9147C01A93A981ED911E
:1006B000A9831E2FE03019F01A93D1DFF7CF1881EC
:1006C00022960895AA27BB271197F1F70895C1989C
:1006D000A7B3A76FA7BBB8B3BF70A8817FDFC19ACC
:1006E0002BC0C298C098E881E093C900E058E0931D
:1006F000C500E881E054E093C60058D057D056D0EA
:10070000E1DFE0E2EA93E3DFDDDFE8E24DD0DADFCC
:10071000E4E04AD0D7DFE5E847D0D4DFA7B3AF7035
:10072000A7BBC19A77DFE53011F0E0E005C045DFF7
:10073000E6E03AD085DFE1E02196089583E08A95EE
:10074000F1F70895FBDF969AF9DF96980895A8814E
:10075000B981EAE0F0E0089539D0DF01EAE0F0E0A5
:1007600048D00895E8EEF3E00895E05DEA9377CF8E
:10077000EA939BCFEA93E1E0EA9354CFFA93EA93AA
:100780000895E2E0CE2E0895EDDFF8DF13D0E0E02B
:10079000F1CF2A92ABCD5E2AE32DE2542082089558
:1007A000AEEBA30D2C90F5CFEA9320CF8BDFE0E3E7
:1007B000EA938DCFE991F991309639F080ED97E089
:1007C0000197F1F7A8953197C9F7089500241124EE
:1007D00090E1AA0FBB1F001C111C0E1A1F0A18F46F
:1007E0000E0E1F1E01C0A1609A9599F7FD01D00160
:1007F0000895ECDFFD0108950590F491E02D089532
:00000001FF
