:0C0000000C9423010C946F060C9400007B
:10000C000C9400000C9400000C9400000C9440091B
:10001C000C9400000C9400000C9418090C94000033
:10002C000C9400000C9400000C9400000C94000044
:10003C000C9400000C9400000C9400000C94000034
:10004C000C9400000C9400000E10111213141516D1
:10005C001716151413121100000000000000000008
:10006C0000000000000000000E1012131417090A03
:10007C000B0A091714131200000000000000000006
:10008C0000000000000000000E111315080A0B0CF4
:10009C000D0C0B0A081513000000000000000000F6
:1000AC000000000000000000000002060E06020026
:1000BC000000080C0E0C08001027E80364000A006E
:1000CC000100001000011000010010005072657357
:1000DC0065744974656D01000100040004000100A1
:1000EC000100010001000100581B0000000000008D
:1000FC004D656D6F7279207772697465004D656D11
:10010C006F72792072656164004D656D6F72792034
:10011C00696E6974004D6F646500537065656400A9
:10012C004F6666004564697420004F7574004F4635
:10013C0046002048616D6D6F6E64204F7267616E72
:10014C00202000205669627261746F2F43686F72B1
:10015C00757320004469676974616C205363616E28
:10016C006E65722000202020202020627920202023
:10017C002020202020002052696E6F6E204E696E68
:10018C007175656F6E20000080C001000200D60002
:10019C000600F801D8000400FF01DE000D0060012C
:1001AC00FC000C006D0109010C0079011501010026
:1001BC000402E20001000502E40001000602E60070
:1001CC0001000702E80001000802EA000100090230
:1001DC00EC0001000A02EE0001000B02F00001002D
:1001EC000F02F20002001202F40005008501210149
:1001FC0006008A012601040090012C0106009401DE
:10020C00300104009A01360104009E013A011100EC
:10021C00A2013E011100B3014F011100C4016001A4
:10022C001100D50171011100E601820106000700E1
:10023C00F60002005A0294010000F894EE27ECBB81
:10024C00F1E0FBBFEBBFE5BFF8E1F1BDE1BD8DE037
:10025C00A2E0BB27ED938A95E9F780E094E0A0E655
:10026C00ED930197E9F7E6E9F1E085919591009717
:10027C0061F0A591B59105901590BF01F001059025
:10028C000D920197E1F7FB01F0CFEFE5EDBFE4E054
:10029C00EEBFC0E6D1E00C94920A1A9310E0EB8109
:1002AC00EE0FEB83E06AEB83EE7FEB83103041F4CF
:1002BC000E94C50CEB81EA930E94F90C1E2FF6CF1D
:1002CC0010E0103031F4EA81EA930E94F90C1E2FF1
:1002DC00F8CF10E0103031F4E981EA930E94F90C68
:1002EC001E2FF8CF0E94D40C1881249608951A93CF
:1002FC0010E0EA81EE0FEA83E06AEA83EE7FEA839C
:10030C00103041F40E94C50CEA81EA930E94F90C6A
:10031C001E2FF6CF10E0103031F4E981EA930E94E1
:10032C00F90C1E2FF8CF10E0EA81E160EA8310305F
:10033C0041F40E94C50CEA81EA930E94F90C1E2F2D
:10034C00F6CFE0E0EA930E94DE0C1E2F0E94D40C44
:10035C00E12F18817BC0A981BA81EAE0F0E00E940C
:10036C00310D4E2EA981BA81EAE0F0E00E941E0DFB
:10037C00DF01EAE0F0E00E94310D3E2EA981BA8146
:10038C00E4E6F0E00E941E0DDF01EAE0F0E00E94DE
:10039C00310D6E2EA981BA81E8EEF3E00E941E0D9C
:1003AC00DF01EAE0F0E00E94310D5E2EA981BA81F6
:1003BC00E0E1F7E20E941E0DDF01EAE0F0E00E94AE
:1003CC00310D8E2E882019F0E82DE05D04C0A88137
:1003DC00A53020F0E0E2EA930E94390CE0E0E5154C
:1003EC0011F4E81519F0E52DE05D04C0A881A430E6
:1003FC0020F0E0E2EA930E94390CE0E0E61521F4EB
:10040C00E51511F4E81519F0E62DE05D04C0A8819E
:10041C00A33020F0E0E2EA930E94390CE0E0E3150F
:10042C0031F4E61521F4E51511F4E81519F0E32D76
:10043C00E05D04C0A881A23020F0E0E2EA930E94C3
:10044C00390CE42DE05DEA930E94390C2396089553
:10045C00EFEFF0E0EB15FC0530F4BB24CC24E1E02D
:10046C00F0E09E0EAF1E0895F8940E94210CE0E679
:10047C00F1E0FA93EA930E94600CA881EFE1EA02A2
:10048C00F0013396BE2ECF2EEC2DF0709E2EAF2E9B
:10049C00EB2DFC2DF070BE2ECF2E9A92BA92EB81E2
:1004AC00EA93FBDEE1E0F0E0BE0ECF1ED1DFE0E030
:1004BC00EA93E1E0EA930E940D0CE8EFF1E0FA9385
:1004CC00EA930E94600CE0E2EA930E94390CE88106
:1004DC00F0E0FA93EA93E0E0EA933DDFE0E2EA939E
:1004EC000E94390CEFEFF1E0FA93EA930E94600C52
:1004FC00E0E2EA930E94390CE0E0E093F701A0916E
:10050C00F701AE3148F5EEE0EA93E1E0EA930E94A0
:10051C000D0CE091F701F0E0FA93EA93E0E0EA9336
:10052C001ADFE0E2EA930E94390C9A92BA92E091B7
:10053C00F701F0E0DE011496AE0FBF1FEC91EA93C9
:10054C00ACDEE1E0F0E0BE0ECF1E82DFE091F70101
:10055C00EF5FE093F701D3CF7894A0960895EE97D0
:10056C00F8940E94210CEDE6F1E0FA93EA930E94D4
:10057C00600CAEADEFE1EA02F0013396BE2ECF2E49
:10058C00EC2DF0709E2EAF2EEB2DFC2DF070BE2EB0
:10059C00CF2E9A92BA92ABDEE883E1E0F0E0BE0E89
:1005AC00CF1E56DFE0E0EA93E1E0EA930E940D0CE7
:1005BC00E8EFF1E0FA93EA930E94600CE0E2EA9330
:1005CC000E94390CEEADF0E0FA93EA93E0E0EA9386
:1005DC00C2DEE0E2EA930E94390CEFEFF1E0FA930D
:1005EC00EA930E94600CE0E2EA930E94390CE0E08E
:1005FC00E093F701A091F701AE3160F5EEE0EA93DC
:10060C00E1E0EA930E940D0CE091F701F0E0FA931F
:10061C00EA93E0E0EA939FDEE0E2EA930E94390C71
:10062C00E091F701F0E0DE011196EA0FFB1FFF935A
:10063C00EF939A92BA925BDEAF91BF91EC93E1E0AB
:10064C00F0E0BE0ECF1E04DFE091F701EF5FE09308
:10065C00F701D0CF7894FE01DE015F968FE10E9406
:10066C003C0DFE017F968FE11FB6F894EF9608952E
:10067C00E0E0EA93EA933BDEEE2EE9E1EE1591F42D
:10068C00E0E0EA93E1E0EA9332DEEE2EE8E0EE15EC
:10069C0049F4E0E0EA93E2E0EA9329DEEE2EEEE1A3
:1006AC00EE1511F0E1E00895E0E008950E94210CB0
:1006BC00E9E7F1E0FA93EA930E94600CE0E0EA9338
:1006CC00EA93E9E1EA93E9DDE0E0EA93E1E0EA9319
:1006DC00E8E0EA93E2DDE0E0EA93E2E0EA93EEE1BF
:1006EC00EA93DBDD9924AA24E3E0F0E0BE2ECF2EC2
:1006FC00DD24E8E0DE1610F00C94E4039A92BA9232
:10070C00E4E5F0E0E491EA93C8DDE1E0F0E0BE0E50
:10071C00CF1E9EDEE0E0E093F701A091F701AE3131
:10072C0010F00C94E203E0E0EA93E1E0EA930E941B
:10073C000D0CE8EFF1E0FA93EA930E94600CE0E212
:10074C00EA930E94390CED2DF0E0FA93EA93E0E085
:10075C00EA9301DEE0E2EA930E94390CEFEFF1E05C
:10076C00FA93EA930E94600CE0E2EA930E94390C3F
:10077C00E091F701F0E0FA93EA93E0E0EA93EBDD25
:10078C00E0E2EA930E94390C9A92BA92E5E5F0E025
:10079C00DF01E091F701F0E0EA0FFB1FE491EA932F
:1007AC007CDDE1E0F0E0BE0ECF1E52DEE091F70101
:1007BC00EF5FE093F701B1CFD3949BCF0895EC8119
:1007CC00AD81EA2319F0EB81EA2309F403C0E0E0E0
:1007DC00E0930802EC81AD81EA2319F4EB81EA2362
:1007EC0009F403C0E1E0E0930802EC81AD81EA2357
:1007FC0019F4EB81EA2309F003C0E2E0E09308026C
:10080C00EC81AD81EA2319F0EB81EA2309F003C0F6
:10081C00E3E0E0930802E981AA81EA2319F0E88178
:10082C00EA2309F403C0E0E0E0930A02E981AA811B
:10083C00EA2319F4E881EA2309F403C0E1E0E09328
:10084C000A02E981AA81EA2319F4E881EA2309F072
:10085C0003C0E2E0E0930A02E981AA81EA2319F0DD
:10086C00E881EA2309F003C0E3E0E0930A02E09197
:10087C000902F0E0309779F4A0910802A13019F444
:10088C00E0E0E0930402A0910802A33019F4E2E046
:10089C00E093040238C0E130A0E0FA0779F4A091AB
:1008AC000802A23019F4E0E0E0930402E09108029F
:1008BC00E03019F4E2E0E093040225C0E230A0E05D
:1008CC00FA0779F4A0910802A33019F4E0E0E09360
:1008DC000402A0910802A13019F4E2E0E0930402B2
:1008EC0012C0E330A0E0FA0771F4E0910802E030A6
:1008FC0019F4E0E0E0930402A0910802A23019F48C
:10090C00E2E0E0930402E0910B02F0E0309779F41E
:10091C00A0910A02A13019F4E0E0E0930502A09145
:10092C000A02A33019F4E2E0E093050238C0E1308A
:10093C00A0E0FA0779F4A0910A02A23019F4E0E0E1
:10094C00E0930502E0910A02E03019F4E2E0E09352
:10095C00050225C0E230A0E0FA0779F4A0910A0262
:10096C00A33019F4E0E0E0930502A0910A02A13053
:10097C0019F4E2E0E093050212C0E330A0E0FA07BC
:10098C0071F4E0910A02E03019F4E0E0E093050222
:10099C00A0910A02A23019F4E2E0E0930502E09182
:1009AC000802E0930902E0910A02E0930B022696FA
:1009BC0008959498939888EB9BE00197F1F7DD24C8
:1009CC00E8E0DE16A8F4E881E07811F0959A01C011
:1009DC00959888EB9BE00197F1F7939A88EB9BE055
:1009EC000197F1F79398E881EE0FE883D394E8CF61
:1009FC0088EB9BE00197F1F7949A219608950E9459
:100A0C00210C20FCB2C0E5E8F1E0FA93EA930E94D5
:100A1C00600CEBE0EA93E0E0EA930E940D0CEAE84C
:100A2C00F1E0FA93EA930E94600CA0910F02A430BB
:100A3C00D0F5E0E0EA93E1E0EA930E940D0CA0917E
:100A4C000F02A23010F0E0E001C0E0E2EA930E9455
:100A5C00390C21FE02C0E3E401C0E6E5EA930E94F2
:100A6C00390CE0910F02F0E0FA93EA93E0E0EA939C
:100A7C0072DC24FE11C0A0910F02A33010F4E1E04F
:100A8C0001C0E0E2EA930E94390CEBE0EA93E1E06A
:100A9C00EA930E940D0C06C0E0E9F1E0FA93EA93A8
:100AAC000E94600C33C0E0E0EA93E1E0EA930E941C
:100ABC000D0CE8EFF1E0FA93EA930E94600CE0E091
:100ACC00E71508F401C0E0E2EA930E94390C21FE1C
:100ADC0002C0E3E401C0E6E5EA930E94390CE72D7D
:100AEC00F0E03196FA93EA93E0E0EA9334DCE7E045
:100AFC007E1610F4E1E001C0E0E2EA930E94390CAA
:100B0C00EBE0EA93E1E0EA930E940D0CA091120253
:100B1C00B0911302A034ECE9BE0710F4E0E001C080
:100B2C00E0E2EA930E94390CA0911202B0911302F8
:100B3C00E0E4FCE9EA1BFB0BDF01E4EFF1E00E94CF
:100B4C001E0DFA93EA93E0E0EA9305DCA091120201
:100B5C00B0911302A53FE1E0BE0710F0E1E001C047
:100B6C00E0E2EA930E94390CB3C0E4E9F1E0FA93B5
:100B7C00EA930E94600CE8EFF1E0FA93EA930E948A
:100B8C00600CA0911802A13020F0A0911B02A030A3
:100B9C0009F002C0E0E001C0E0E2EA930E94390CE7
:100BAC00E0911802F0E03196FA93EA93E0E0EA93D0
:100BBC00D2DBA0911802A73020F4A0911B02A03028
:100BCC0009F002C0E1E001C0E0E2EA930E94390CB6
:100BDC00E0E2EA930E94390C25FE04C0EAE2EA93B3
:100BEC000E94390CE0E0EA93E1E0EA930E940D0CDC
:100BFC00EFEFF1E0FA93EA930E94600CA0911902D6
:100C0C00A13020F0A0911B02A13009F002C0E0E05D
:100C1C0001C0E0E2EA930E94390CE0911902F0E085
:100C2C003196FA93EA93E2E0EA9395DBA0911902EC
:100C3C00AD3140F4A0911B02A13021F4A0911A0215
:100C4C00A13008F402C0E1E001C0E0E2EA930E94A6
:100C5C00390CA0911A02A13020F0E0E2EA930E9434
:100C6C00390CEAE9F1E0FA93EA930E94600CA09146
:100C7C001A02A13020F0A0911B02A23009F002C090
:100C8C00E0E001C0E0E2EA930E94390CA0911A0264
:100C9C00A13048F0E0911A02F0E0FA93EA93E2E016
:100CAC00EA9359DB06C0EEE9F1E0FA93EA930E946D
:100CBC00600CA0911A02A03120F4A0911B02A2306A
:100CCC0009F002C0E1E001C0E0E2EA930E94390CB5
:100CDC0008950A921A92FA926A937A938A939A9343
:100CEC00AA93BA93EA93FA93EFB7EA9323FE0EC052
:100CFC00E991EFBFF991E991B991A99199918991F4
:100D0C0079916991F990199009901895CE999FC194
:100D1C0020FC47C0E0910C02E03031F0A0910F02B2
:100D2C00A23010F0A43008F005C0E0910F02E150A1
:100D3C00E0930F02E0910C02E03021F4A0910F023D
:100D4C00A33008F005C0E0910F02EF5FE0930F02B3
:100D5C00E0910C02E03039F4A0910F02A43019F4A8
:100D6C00E0E0E71508F008C07A947A92F8DBABE380
:100D7C00B2E00E943C0D1FBEE0910C02E03039F055
:100D8C00A0910F02A43019F4E7E07E1608F008C019
:100D9C0073947A92E4DBABE3B2E00E943C0D1FBE8D
:100DAC0055C1E0910C02E03011F00C948907E091F0
:100DBC001B02F0E0309751F5A0911802A13010F011
:100DCC0025FE01C022C0E0911802E150E093180208
:100DDC00EA93C5DBACE1B2E00E943C0D1FBEE0E043
:100DEC00E0931902ADE1B2E0F0E0AE0FBF1FEC9161
:100DFC00AE2FE7700E2EEA2FE870E00DE0931A028A
:100E0C00E03019F0EF5FE0931A0274C0E130A0E01B
:100E1C00FA0711F00C946507A0911902A13010F497
:100E2C000C946407E0911A02E03039F1E150E09340
:100E3C001A02ADE1B2E0E0911902F0E0AE0FBF1F73
:100E4C00E0911A02E770EC93A0911A02A83050F0CE
:100E5C00ADE1B2E0E0911902F0E0AE0FBF1FEC91F2
:100E6C00E85F09C0ADE1B2E0E0911902F0E0AE0F2D
:100E7C00BF1FEC91E05FEC9309C0ADE1B2E0E091F3
:100E8C001902F0E0AE0FBF1FE0E0EC93E091190205
:100E9C00E150E0931902ADE1B2E0F0E0AE0FBF1FFC
:100EAC00EC91AE2FE7700E2EEA2FE870E00DE09378
:100EBC001A02E03019F0EF5FE0931A021BC0E23027
:100ECC00A0E0FA07B9F4A0911A02A13058F0E09111
:100EDC001902F0E03196DF01E0911C02F0E0EA1714
:100EEC00FB0709F007C0E0911A02E150E0931A02E7
:100EFC00689425F8E0911A02E03021F4E09119028F
:100F0C00E0931C02A3C0E0911B02F0E0309751F576
:100F1C00A0911802A73010F425FE01C022C0E09168
:100F2C001802EF5FE0931802EA9319DBACE1B2E030
:100F3C000E943C0D1FBEE0E0E0931902ADE1B2E06F
:100F4C00F0E0AE0FBF1FEC91AE2FE7700E2EEA2F24
:100F5C00E870E00DE0931A02E03019F0EF5FE093D7
:100F6C001A0274C0E130A0E0FA0711F00C941D08CD
:100F7C00A0911902AD3120F4A0911A02A13008F40D
:100F8C0055C0E0911A02E03039F1E150E0931A02B9
:100F9C00ADE1B2E0E0911902F0E0AE0FBF1FE091BD
:100FAC001A02E770EC93A0911A02A83050F0ADE150
:100FBC00B2E0E0911902F0E0AE0FBF1FEC91E85FD8
:100FCC0009C0ADE1B2E0E0911902F0E0AE0FBF1F35
:100FDC00EC91E05FEC9309C0ADE1B2E0E091190255
:100FEC00F0E0AE0FBF1FE0E0EC93E0911902EF5F71
:100FFC00E0931902ADE1B2E0F0E0AE0FBF1FEC914F
:10100C00AE2FE7700E2EEA2FE870E00DE0931A0277
:10101C00E03019F0EF5FE0931A02E0911C02A0910E
:10102C001902EA1718F4EF5FE0931C020FC0E230CC
:10103C00A0E0FA0759F4A0911A02A03138F4E0911B
:10104C001A02EF5FE0931A02689425F8DE9ACF99A2
:10105C0053C020FC35C0E0910D02E03041F0A0916E
:10106C001202B0911302A034ECE9BE0708F00AC0DA
:10107C00E0911202F0911302EC50FE4FE093120239
:10108C00F0931302E0910D02E03041F4A0911202B2
:10109C00B0911302A53FE1E0BE0708F40AC0E0914D
:1010AC001202F0911302E45FF140E0931202F0930C
:1010BC001302E0911202F0911302FBBDEABD1BC0BA
:1010CC00E0910D02E03061F4A0911B02A13020F000
:1010DC00E0911B02E15001C0E2E0E0931B020BC067
:1010EC00A0911B02A23020F4E0911B02EF5F01C023
:1010FC00E0E0E0931B02DF9AB09902C0CC9901C0EA
:10110C0010C020FC0EC0A0910F02A43019F4E09185
:10111C00100205C0E0910F02E0931002E4E0E093AE
:10112C000F02B09902C0CC9B01C007C020FE03C0C7
:10113C00E89426F801C0689420F8CD991DC020FCD5
:10114C0015C024FE0DC0E89424F8689423F8E091AF
:10115C001202F0911302E0931402F093150205C0F1
:10116C00689424F823F8E9E0EEBD06C026FE02C020
:10117C00E89401C0689426F8B19904C025FE02C019
:10118C0020FC01C040C0E0911A02E03039F1E1507E
:10119C00E0931A02ADE1B2E0E0911902F0E0AE0F7B
:1011AC00BF1FE0911A02E770EC93A0911A02A830CD
:1011BC0050F0ADE1B2E0E0911902F0E0AE0FBF1FCC
:1011CC00EC91E85F09C0ADE1B2E0E0911902F0E00A
:1011DC00AE0FBF1FEC91E05FEC9309C0ADE1B2E044
:1011EC00E0911902F0E0AE0FBF1FE0E0EC93ECE1F0
:1011FC00F2E0AFE10E94340DE0911802EA930E94F4
:10120C003A02E89425F8FBDBE991EFBFF991E991FB
:10121C00B991A9919991899179916991F9901990C4
:10122C00099018950A921A92FA926A937A938A9371
:10123C009A93AA93BA93EA93FA93EFB7EA93E9B322
:10124C00EA93E1E0EA93E2E0EA93E9B3EA93E4E0BB
:10125C00EA93E8E0EA93B3DAE991EFBFF991E99107
:10126C00B991A9919991899179916991F990199074
:10127C00099018950A921A92FA926A937A938A9321
:10128C009A93AA93BA93EA93FA93EFB7EA9322FE4E
:10129C0004C0E0910E02E15003C0E0910E02EF5F3A
:1012AC00E0930E02E3BDA0910E02A13010F0AF3F0F
:1012BC0008F00EC0E991EFBFF991E991B991A991AC
:1012CC009991899179916991F99019900990189552
:1012DC0020FCCDC023FE4EC024FC2AC0A0911202DB
:1012EC00B0911302A134ECE9BE0758F4E09112025C
:1012FC00F0911302EC50FE4FE0931202F0931302A4
:10130C0017C0EFEFE0931602EA9353DBE0E0EEBD7B
:10131C00E89423F8E991EFBFF991E991B991A9917A
:10132C009991899179916991F990199009901895F1
:10133C0024FE20C0E0911402F0911502A09112023B
:10134C00B0911302AE17BF0758F0E0911202F09162
:10135C001302E45FF140E0931202F09313020AC00F
:10136C00E0911402F0911502E0931202F093130233
:10137C00E89423F8E0910F02F0E0E130A0E0FA07E6
:10138C00D9F4E5E5F0E0DF01E0911102F0E0EA0FBD
:10139C00FB1F049000921602E0911102EF5FE093A4
:1013AC001102E4E5F0E0E491A0911102AE1718F0FF
:1013BC00E0E0E09311025AC0E230A0E0FA07D9F461
:1013CC00E5E7F0E0DF01E0911102F0E0EA0FFB1F2E
:1013DC00049000921602E0911102EF5FE09311026B
:1013EC00E4E7F0E0E491A0911102AE1718F0E0E010
:1013FC00E09311023BC0E330A0E0FA07D9F4E5E931
:10140C00F0E0DF01E0911102F0E0EA0FFB1F049025
:10141C0000921602E0911102EF5FE0931102E4E9F1
:10142C00F0E0E491A0911102AE1718F0E0E0E09327
:10143C0011021CC0E430A0E0FA07C1F4ACE3B2E046
:10144C00E0911102F0E0AE0FBF1FEC91E093160299
:10145C00E0911102EF5FE0931102E0913B02A09149
:10146C001102AE1718F0E0E0E09311021EC026FE48
:10147C0019C0ADE1B2E0E0911102F0E0AE0FBF1F78
:10148C00EC91E0931602E0911102EF5FE0931102F0
:10149C00E0911C02A0911102AE1718F0E0E0E0936D
:1014AC00110203C0E0E1E0931602E0911602EF7026
:1014BC00E0931602E295E07FED5FE8BB22FE0BC0E5
:1014CC00E0911602E295E07FA0911702EA0FEA93F1
:1014DC0070DAE8940AC0E0911702E295E07FA091DF
:1014EC001602EA0FEA9365DA689422F8E091160284
:1014FC00E0931702E0E0F0E0FDBDECBDE991EFBF39
:10150C00F991E991B991A9919991899179916991FF
:10151C00F99019900990189510E0E0ECEBBBEABB40
:10152C00E3E0E8BBE0EFE7BBE0E0E5BBE4BBE7E012
:10153C00E2BBEBEFE1BBE2E0E3BFE0E0E2BFECBF1C
:10154C00EFBDE9E0EEBDE0E0EDBDECBDE7BDE6BD15
:10155C00E0911202F0911302FBBDEABDE0E0E9BD9F
:10156C00E8BDE2BDE1E6E5BDE0E0E4BDEFEFE3BDE3
:10157C00EBB7E064EBBFE2E0E5BFE0E0E4BFE0E442
:10158C00EABFE1E1E9BFE0E8E8B9E0E0E0BFE0E1B3
:10159C00EA930E947F0C10E0183068F4E12FE05CB5
:1015AC00EA93E12FF0E0EC54FF4FE491EA930E94B0
:1015BC00EF0B1F5FF1CF10E0183068F4E12FE85B00
:1015CC00EA93E12FF0E0E454FF4FE491EA930E9498
:1015DC00EF0B1F5FF1CF0E94C00C0E94210CE2EABE
:1015EC00F1E0FA93EA930E94600CE8EEF3E0FA93D0
:1015FC00EA930E94120DE0E0EA93E1E0EA930E9484
:10160C000D0CE3EBF1E0FA93EA930E94600CE8EE28
:10161C00F3E0FA93EA930E94120DE0E0EA93E1E022
:10162C00EA930E940D0CE4ECF1E0FA93EA930E9429
:10163C00600CE8EEF3E0FA93EA930E94120DE0E0FE
:10164C00EA93E1E0EA930E940D0CE5EDF1E0FA93E8
:10165C00EA930E94600CECEBF2E0FA93EA930E949E
:10166C00120DE0E0EA93E1E0EA930E940D0CE6EE45
:10167C00F1E0FA93EA930E94600CE8EEF3E0FA933F
:10168C00EA930E94120DE4E6F0E0FA93EA930E94CA
:10169C00120D0E943E03E03011F00E945C0378941E
:1016AC007A920E94B502ABE3B2E00E943C0D1FBEE1
:1016BC00A6D9A0910402A13031F1E0910402E030EE
:1016CC0079F4E0910602E03039F4E4E0E0930602AC
:1016DC00DE98E0E0E0930C02E0910602E1500EC0CF
:1016EC00A0910602A83039F4E4E0E0930602DE98FB
:1016FC00E1E0E0930C02E0910602EF5FE09306025A
:10170C00E1E0E0930402A0910502A13031F1E091F7
:10171C000502E03079F4E0910702E03039F4E4E0BE
:10172C00E0930702DF98E0E0E0930D02E0910702FE
:10173C00E1500EC0A0910702A83039F4E4E0E09328
:10174C000702DF98E1E0E0930D02E0910702EF5F02
:10175C00E0930702E1E0E09305029B9B06C021FCAD
:10176C0003C0689421F84BD905C021FE03C0E8944E
:10177C0021F845D99ECFFFCFFFE0FA95F1F70895F8
:10178C00A4B3AF70A4BBA99AA898F6DFAA9AF4DF09
:10179C00A3B3AA98F1DFAA9AEFDFAA98A7FDF5CF19
:1017AC000895A07FAB2BA5BBAA9A0E94C20BAA9846
:1017BC000E94C20B0895A998A4B3A76FA4BBB5B39C
:1017CC00BF70A881EEDFA881A295EBDFA99A0C94DB
:1017DC00BE0C0E94C60BE981EA93EDDF0E94C60B9A
:1017EC00A89AE881EA93E7DF24C0AA9A0E94C20B68
:1017FC00E3B3AA980E94C20BE07F08950E94C20B2B
:10180C00F4DFAE2FF2DFA998E295EA2B08950E943F
:10181C00C60BE881F0E0E65AFD4FE081A981EA0FA2
:10182C00EA930E94E10BE981E0935E02E881E09388
:10183C005F02229608950E94C60BE2E0EA930E9492
:10184C00E10B0E94C60BECE0EA930E94E10B0E94B4
:10185C00C60BE1E0EA930E94E10BE0E0E0935F024B
:10186C00E0935E020895EF93FF93A8816894AA30E9
:10187C0039F0E894E0916002A0915E02AE1760F03E
:10188C00E0915F02EF5FE0935F02E0E0EA93E091AA
:10189C005F02EA93BCDF56F0E0915E02EF5FE093EB
:1018AC005E026EDFA89AA881AA9385DFFF91EF9163
:1018BC000C94BE0C1A93A981BA81ED91A983BA83B9
:1018CC001E2FE03019F01A93CEDFF5CF1881239636
:1018DC000895AA27BB271197F1F70895A998A4B3E7
:1018EC00A76FA4BBB5B3BF70A8810E94D70BA99AF0
:1018FC003FC0AA98A898E881E0936002E058E09372
:10190C005C02E881E054E0935D02E3DFE0E3EA93FC
:10191C00E5DFDFDFE0E3EA93E1DFDBDFE0E3EA933F
:10192C00DDDFD7DFE0E2EA93D9DFD3DFE8E2EA9349
:10193C000E94E10BCEDFE4E0EA930E94E10BC9DFE9
:10194C00E5E8EA930E94E10BC4DFA4B3AF70A4BB3B
:10195C00A99A0E94040CE53011F0E0E009C00E9445
:10196C00C60BE6E0EA930E94E10B0E94210CE1E039
:10197C002196089591989098899A889815C088987E
:10198C008998EE270000809B0895819B089504D0D0
:10199C00889A02D0899AE1E064E107C0889A899A12
:1019AC0003D08998F9DF889868E26A95F1F7089571
:1019BC0078E08998F1DF819BFECFEEDF88948099E7
:1019CC000894899AF1DFEE1F7A9599F7799177232C
:1019DC0011F4889801C0889ADFDF8998E5DF899A2D
:1019EC00DBDF8898D9CFE99178E0EE0F10F4889876
:1019FC0001C0889AD9DF8998CFDF819BFECFCCDFDD
:101A0C00899A7A9591F78898C7DF8998CDDFE1E0BC
:101A1C008099EE27899A0895E991F991309639F0D9
:101A2C0088EB9BE00197F1F7A8953197C9F70895DA
:101A3C000024112490E1AA0FBB1F001C111C0E1ACC
:101A4C001F0A18F40E0E1F1E01C0A1609A9599F77B
:101A5C00FD01D0010895ECDFFD010895BB27EA0FCD
:101A6C00FB1F02900A921197E1F708959927EF93C3
:101A7C00FF9361916D930197E1F7FF91EF910895B9
:00000001FF
